:100000000C94B60E0C9400000C9400000C940000AC
:100010000C9400000C9400000C9400000C94000060
:100020000C9400000C9400000C9400000C94930EAF
:100030000C9400000C9400000C9400000C94000040
:100040000C9400000C9400000C9400000C94000030
:040050000C9400000C
:101D6C00BFE5BDBFB4E0BEBF0E94370F32DEC2DF9D
:101D7C0026DFEDDDA2DE36DF0CDB89DAE4DC65DDA7
:081D8C0053DCB0DBF6CFFFCF02
:1019DE002F92B0E0BBBBB0E0BABBBFE0B8BBB0EF7C
:1019EE00B7BBB0E0B5BBB0E0B4BBB0E0B2BBB6E7DE
:1019FE00B1BBB0E0B3BFB0E0B2BFB0E0BCBFB0E0CF
:101A0E00BFBDB0E0BEBDB0E0BDBDB0E0BCBDB0E09E
:101A1E00B7BDB0E0B6BDB0E0BBBDB0E0BABDB0E0A2
:101A2E00B9BDB0E0B8BDB0E0B2BDB0E0B5BDB0E09C
:101A3E00B4BDB0E0B3BDB0E0B5BFB0E0B4BFB0E090
:101A4E00B9BFB0E0BBB9B8E1BAB9B6E8B0BDB0E065
:101A5E00B0BDBCE0B9B9B0E8B8B9B0E0B0BFB0E065
:101A6E00B6B9B0E0BDB9B0E0B6BFD3D8B1E02B2E59
:101A7E005EDBBCE02B2E5BDBB0E4B9B9B0E0B0BDF1
:101A8E00772466248DD8BAB1B068BAB9BAB1BF7B23
:101A9E00BAB9BAB1B860BAB9BFB7B068BFBF26E0BD
:101AAE0013E10EEA0A95F1F71A95E1F72A95D1F7A7
:081ABE00000000002F900895C4
:100C2000B0913200BF7EB0933200B0913200BF7BF2
:100C3000B0933200B0913800BF77B0933800B091D4
:100C40003800BF7BB0933800B0913800BF7DB093BF
:100C50003800B0913800BF7EB0933800B0913100B9
:100C6000B061B0933100B0913100B064B093310005
:100C7000B0913700B061B0933700B0913700B062E7
:100C8000B0933700B0913700B064B0933700B091A3
:100C90003700B068B093370035DC34DC33DCB0911A
:100CA0003800B062B0933800B0913800B061B093B2
:100CB0003800B0913200B061B09332001EDCB091C8
:100CC0003200BF7EB09332001DDCB0913200B061C3
:100CD000B093320012DCB0913200BF7EB09332008C
:100CE00011DCB0913200B061B093320006DCB091FB
:100CF0003200BF7EB093320005DCB0913800BF7E79
:100D0000B0933800B0913200B061B0933200F5DB9F
:100D1000B0913200BF7EB0933200F4DBB09132006C
:100D2000B061B0933200E9DBB0913200BF7EB09386
:100D30003200B0913800BF7DB0933800B0913800D8
:100D4000B068B0933800B0913200B061B093320017
:100D5000D4DBB0913200BF7EB0933200D3DBB091D0
:100D60003800BF77B0933800B0913800B061B093CD
:100D70003800B0913200B061B0933200BEDBB09168
:100D80003200BF7EB0933200B0913800BF7EB09386
:100D90003800B0913200B061B0933200AEDBB09158
:100DA0003200BF7EB0933200ADDBB0913200B06153
:100DB000B0933200A2DBB0913200BF7EB09332001C
:100DC000B0913800B061B0933800B0913200B0619A
:100DD000B093320092DBB0913200BF7EB09332000C
:100DE00091DBB0913800BF7EB0933800B0913200F3
:100DF000B061B093320081DBB0913200BF7EB0931E
:100E00003200B0913800B068B0933800B09138002B
:100E1000B064B0933800B0913800B062B09338003D
:100E2000B0913800B061B0933800B0913200B06139
:100E3000B093320062DBB0913200BF7EB0933200DB
:0E0E400061DBB0914701B160B09347010895A6
:0E05040018E40DE60A95F1F71A95E1F708954F
:0A04FA0003E00A95F1F700000895F1
:10113C0027FAB0913800B7F9B093380026FAB0917D
:10114C003800B6F9B093380025FAB0913800B5F9EB
:10115C00B093380024FAB0913800B4F9B093380049
:10116C00B091470100903200E894B0FF689406F803
:10117C0000923200B0913200B061B0933200B7D916
:10118C00B0913200BF7EB093320023FAB091380098
:10119C00B7F9B093380022FAB0913800B6F9B09391
:1011AC00380021FAB0913800B5F9B093380020FA24
:1011BC00B0913800B4F9B0933800B0914701009069
:1011CC003200E894B0FF689406F800923200B091B7
:1011DC003200B061B09332008AD9B0913200BF7E38
:1011EC00B0933200B0914701B0FF02C085D901C065
:0411FC00D2DC0895A4
:0C0BA20006EA0A95F1F700000000089533
:100BAE00BBE6B0934801B5E0B0934901BFEFB093F7
:100BBE004A01BFEFB0934B01BFEFB0933B01BFEFC4
:100BCE00B0933C01BFEFB0933901BFEFB0933A0140
:100BDE00B1B3BE7FB1BBB1B3B260B1BB062D0729B5
:0C0BEE00066800BD0AB108610AB908954C
:101D000029E00FEF021774F40DE311E0E22FF0E089
:101D100027FDFFEFE00FF11FB0E0B083022F01506D
:061D2000202FEFCF089513
:101BCA002BE80FEF021774F40CE411E0E22FF0E0B7
:101BDA0027FDFFEFE00FF11FB0E0B083022F0150A5
:061BEA00202FEFCF08954B
:10195A002F92D1D1B1E0B0933D01B4E0B0933E01F2
:10196A00BBE0B0933F01B8EBB0934001B0E0B09355
:10197A004101BFE3B0934201B2E3B0934301BBE13B
:10198A00B0934401B2B3B460B2BB20E02A3078F419
:10199A000DE311E0E22FF0E0E00FF11F00812F9339
:1019AA00202E33D92F91022F0F5F202FEFCFB0E0D7
:1019BA00B093FE00B2B3BB7FB2BB23E31BEB00EED6
:1019CA000A95F1F71A95E1F72A95D1F70000000078
:0419DA002F900895AD
:0C0C1400E0914801F09149010995089514
:100AD600BBB1B5FD01C0FCCFBBB1B6FF03C0BBB116
:080AE600B064BBB92CB80895FF
:101AC6002F923F924F925F926F927F928F92B1E0E8
:101AD6002B2E31DBB7EE4B2EB0E05B2EB5E03B2E66
:101AE600B1E02B2E90DBB4EF4B2EB0E05B2EB2E0D4
:101AF6003B2EB2E02B2E87DBB9EF4B2EB0E05B2EF0
:101B0600B2E03B2EB3E02B2E7EDBBFEF4B2EB0E0D8
:101B16005B2EB2E03B2EB4E02B2E75DB30905001ED
:101B260020904F016ADB20E0322F64D840E050E07D
:101B360060E271E462D8B1E08B2E28013901B2E08F
:101B46003B2EBEE02B2E80D93090520120905101C1
:101B560054DB20E0322F4ED840E050E060E271E4E2
:101B66004CD8B1E08B2E28013901B3E03B2EBEE004
:101B76002B2E6AD930905401209053013EDB20E091
:101B8600322F38D840E050E060E271E436D8B1E058
:101B96008B2E28013901B4E03B2EBEE02B2E54D902
:101BA60024E816EE03EE0A95F1F71A95E1F72A9561
:101BB600D1F700008F907F906F905F904F903F908D
:041BC6002F900895BF
:10120C002F920FC0B0E82B2E19C0B0EC2B2E16C0AD
:10121C00B4E92B2E13C0B4ED2B2E10C0B0E82B2E3E
:10122C000DC0B1E02B1671F3B2E02B1671F3B3E0E5
:10123C002B1671F3B4E02B1671F3F0CF032D015084
:10124C00020D202E202E74DFB0914701BE7FB0938B
:10125C00470110E0E12FF0E0E40DF51D00810023C3
:10126C0079F0E12FF0E0E40DF51D00811F932F9232
:10127C00202E37DC2F901F91012F0F5F102FEACFFC
:0E128C00B0914701B160B09347012F900895D3
:100AEE00B0914701BE7FB093470121D3B09147012A
:080AFE00B160B09347010895B7
:0C120000222D30E0122F00270329089552
:100E4E00CF93DF93CDB7DEB72497CDBFDEBF21960C
:100E5E002F924F925F926F927F92820193015CDB91
:100E6E00088319832A833B838F927F926F925F92BE
:100E7E004F923F922F922801390172DB2F903F90B3
:100E8E004F905F906F907F90088119812A813B81EE
:100E9E00B6DA3F922F92A801B9018201930132DB9B
:100EAE0040E050E068EC72E417DB2F903F908F909B
:100EBE0033DB088319832A833B8340E050E060E0F4
:100ECE0070E0041715072607370784F40880198089
:100EDE0000E010E0001911090A801B8020E030E0CC
:100EEE0020093109088319832A833B838F923F920D
:100EFE002F9240E050E060E070E08201930182DAD0
:100F0E00002800E009F001E02F903F908F90002321
:100F1E00F9F082019301B0E00B27B0E01B27B0E09F
:100F2E002B27B0E83B27280139017F926F925F9201
:100F3E004F923F922F923F92BDE24B2E322C2F902A
:100F4E009BD82F903F904F905F906F907F9012C0E4
:100F5E007F926F925F924F923F922F923F92B0E2AA
:100F6E004B2E322C2F9088D82F903F904F905F9021
:100F7E006F907F908F923F922F9240E050E46CE101
:100F8E0076E48201930145DA002800E009F001E0E1
:100F9E002F903F908F900023D9F08F923F922F92F7
:100FAE0040E050E563EC77E4820193012BDA0028F0
:100FBE0000E009F001E02F903F908F90002341F068
:100FCE00022D0A5F682C48805980202E95DDA4C022
:100FDE008F923F922F9240E050E06AE774E48201D4
:100FEE00930117DA002800E009F001E02F903F90FE
:100FFE008F900023D9F08F923F922F9240E050E4D1
:10100E006CE176E482019301FDD9002800E009F03D
:10101E0001E02F903F908F90002341F0022D0B5F47
:10102E00682C48805980202E67DD76C08F923F92C3
:10103E002F9240E050E068EC72E482019301E9D90E
:10104E00002800E009F001E02F903F908F900023E0
:10105E00D9F08F923F922F9240E050E06AE774E40D
:10106E0082019301CFD9002800E009F001E02F9012
:10107E003F908F90002341F0022D0C5F682C48802A
:10108E005980202E39DD48C08F923F922F9240E03A
:10109E0050E060E271E482019301BBD9002800E0C8
:1010AE0009F001E02F903F908F900023D9F08F929E
:1010BE003F922F9240E050E068EC72E4820193017F
:1010CE00A1D9002800E009F001E02F903F908F9009
:1010DE00002341F0022D0D5F682C48805980202E90
:1010EE000BDD1AC08F923F922F9240E050E060E2EB
:1010FE0071E48201930186D9002800E009F001E035
:10110E002F903F908F90002339F0022D0E5F682CA8
:10111E0048805980202EF0DC7F906F905F904F902A
:0E112E002F902396CDBFDEBFDF91CF910895A5
:10056E00CF93DF93CDB7DEB72997CDBFDEBF2196F0
:10057E004F925F926F927F92B0E2B883B0E2B983EE
:10058E00B0E2BA83B0E2BB83B0E2BC83B0E2BD831B
:10059E00B0E0BE8300E010E020E030E040165106EF
:1005AE006206730674F4FE01BDE2B08300E010E053
:1005BE0020E030E004191509260937092801390110
:1005CE0003C0FE01B0E2B0830FE017E220E030E09E
:1005DE0004151505260537050CF0AEC08E010F5F0C
:1005EE001F4F0F8318877F926F925F924F923F92A9
:1005FE002F9240E157E260E070E082019301B7DE96
:10060E0089019A012F903F904F905F906F907F904D
:10061E00202F205D0F811885F80120838E010E5F3B
:10062E001F4F0F8318877F926F925F924F923F9268
:10063E002F9240E157E260E070E08201930197DE75
:10064E008B019C0148EE53E060E070E090DE890182
:10065E009A012F903F904F905F906F907F90202F38
:10066E00205D0F811885F80120838E010D5F1F4FCD
:10067E000F8318877F926F925F924F923F922F92C5
:10068E0048EE53E060E070E08201930170DE8B0172
:10069E009C0144E650E060E070E069DE89019A0159
:1006AE002F903F904F905F906F907F90202F205D06
:1006BE000F811885F80120838E010C5F1F4F0F8369
:1006CE0018877F926F925F924F923F922F9244E6DD
:1006DE0050E060E070E08201930149DE8B019C01E5
:1006EE004AE050E060E070E042DE89019A012F900E
:1006FE003F904F905F906F907F90202F205D0F81E5
:10070E001885F80120838E010B5F1F4F0F8318870A
:10071E003F922F924AE050E060E070E08201930138
:10072E0026DE8B019C012F903F90202F205D0F81A4
:10073E001885F8012083BBC107EE13E020E030E0FE
:10074E0004151505260537050CF09DC00FE017E2C0
:10075E0020E030E004151505260537050CF493C08E
:10076E008E010F5F1F4F0F8318877F926F925F92DC
:10077E004F923F922F9240E157E260E070E082018B
:10078E009301F5DD8B019C0148EE53E060E070E0D3
:10079E00EEDD89019A012F903F904F905F906F9000
:1007AE007F90202F205D0F811885F80120838E0108
:1007BE000E5F1F4F0F8318877F926F925F924F923B
:1007CE003F922F9248EE53E060E070E08201930179
:1007DE00CEDD8B019C0144E650E060E070E0C7DDA9
:1007EE0089019A012F903F904F905F906F907F906C
:1007FE00202F205D0F811885F80120838E010D5F5B
:10080E001F4F0F8318877F926F925F924F923F9286
:10081E002F9244E650E060E070E082019301A7DD84
:10082E008B019C014AE050E060E070E0A0DD8901A0
:10083E009A012F903F904F905F906F907F90202F56
:10084E00205D0F811885F80120838E010C5F1F4FEC
:10085E000F8318873F922F924AE050E060E070E0DD
:10086E008201930184DD8B019C012F903F90202FFC
:10087E00205D0F811885F80120838E01F8013596D1
:10088E00B0E2B08314C103E610E020E030E00415BE
:10089E001505260537050CF07BC007EE13E020E0AA
:1008AE0030E004151505260537050CF471C08E01D0
:1008BE000F5F1F4F0F8318877F926F925F924F9239
:1008CE003F922F9248EE53E060E070E08201930178
:1008DE004EDD8B019C0144E650E060E070E047DDA8
:1008EE0089019A012F903F904F905F906F907F906B
:1008FE00202F205D0F811885F80120838E010E5F59
:10090E001F4F0F8318877F926F925F924F923F9285
:10091E002F9244E650E060E070E08201930127DD03
:10092E008B019C014AE050E060E070E020DD89011F
:10093E009A012F903F904F905F906F907F90202F55
:10094E00205D0F811885F80120838E010D5F1F4FEA
:10095E000F8318873F922F924AE050E060E070E0DC
:10096E008201930104DD8B019C012F903F90202F7B
:10097E00205D0F811885F80120838E01F8013496D1
:10098E00B0E2B0838E01F8013596B0E2B0838FC02D
:10099E0009E010E020E030E00415150526053705C6
:1009AE000CF059C003E610E020E030E00415150508
:1009BE00260537050CF44FC08E010F5F1F4F0F83B6
:1009CE0018877F926F925F924F923F922F9244E6DA
:1009DE0050E060E070E082019301C9DC8B019C0164
:1009EE004AE050E060E070E0C2DC89019A012F908D
:1009FE003F904F905F906F907F90202F205D0F81E2
:100A0E001885F80120838E010E5F1F4F0F83188704
:100A1E003F922F924AE050E060E070E08201930135
:100A2E00A6DC8B019C012F903F90202F205D0F8123
:100A3E001885F80120838E01F8013396B0E2B08359
:100A4E008E01F8013496B0E2B0838E01F80135962E
:100A5E00B0E2B0832CC08E010F5F1F4F0F8318873B
:100A6E003F922F924AE050E060E070E082019301E5
:100A7E007EDC8B019C012F903F90202F205D0F81FB
:100A8E001885F80120838E01F8013296B0E2B0830A
:100A9E008E01F8013396B0E2B0838E01F8013496E0
:100AAE00B0E2B0838E01F8013596B0E2B0838E01CC
:100ABE002801C5DB7F906F905F904F902896CDBF39
:080ACE00DEBFDF91CF91089516
:10024C00F20100815F924F923F922F923F92402E8B
:10025C00322C2F9012DF2F903F904F905F90022DF9
:10026C000F5F202E82010F5F1F4F2801F8010081C4
:06027C00003031F7089587
:100086002F920FC0B0E82B2E19C0B0EC2B2E16C045
:10009600B4E92B2E13C0B4ED2B2E10C0B0E82B2ED6
:1000A6000DC0B1E02B1671F3B2E02B1671F3B3E07D
:1000B6002B1671F3B4E02B1671F3F0CF032D01501C
:1000C600020D202EB0914701B160B0934701202E5A
:1000D6000E949E08B0914701BE7FB0934701242C31
:1000E6000E949E08B0914701B160B09347012F90DE
:0200F60008956B
:10037C00C9019A01AB01B80197FB092E05260ED0D5
:10038C0057FD04D014D00AD0001C38F45095409579
:10039C00309521953F4F4F4F5F4F0895F6F790954D
:1003AC008095709561957F4F8F4F9F4F0895A1E277
:1003BC001A2EAA1BBB1BFD010DC0AA1FBB1FEE1FD3
:1003CC00FF1FA217B307E407F50720F0A21BB30B1E
:1003DC00E40BF50B661F771F881F991F1A9469F79A
:1003EC0060957095809590959B01AC01BD01CF01F6
:0203FC00089562
:100B0600CF93DF93CDB7DEB72697CDBFDEBF219655
:100B16004F925F92BEE2B883B0E2B983B0E2BA8385
:100B2600B0E0BB838E010F5F1F4F0C831D836F9256
:100B36005F924F923F922F924AE050E08201F1DBA2
:100B46008B012F903F904F905F906F90202F205DEC
:100B56000C811D81F801208301E00615A0F48E01A9
:100B66000E5F1F4F0C831D833F922F924AE050E089
:100B76008201D7DB8C012F903F90202F205D0C81C6
:100B86001D81F80120838E0128015DDB5F904F9067
:0C0B96002596CDBFDEBFDF91CF91089502
:10032800C801BA0197FB092E07260AD077FD04D029
:100338000CD006D000201AF4709561957F4F08956F
:10034800F6F7909581959F4F0895AA1BBB1B51E125
:1003580007C0AA1FBB1FA617B70710F0A61BB70B2D
:10036800881F991F5A95A9F780959095BC01CD01D2
:040378000895089547
:10052600EBDEF1F05523C2F04F31A8F44731C1F0AC
:1005360050F44195495E05C0359527951795079561
:100546004A95D1F70DC04751000F111F221F331FC7
:100556004A95D1F705C03FE7232F132F032F03C07A
:08056600662309F05DDE089533
:1002FE00BBDE79F0632F6078220F331F432F5FE749
:10030E00451B55275040269530E8232B33279894CC
:0A031E0003C0442755276627089501
:10007600002329F4112319F4222309F433230895C4
:000086007A
:1002260000951095209530950F5F1F4F2F4F3F4F2C
:02023600089529
:06040C00E89414DF0895DE
:1002380047E16627552726F0332312F4F0DF60E8FC
:0402480057DF0895DF
:1000F800BEDF11F19F938F938EE790E0332351F089
:10010800369527951795079548175907B4F44F5F03
:100118005F4FF4CF80959095019622239AF0000FB7
:10012800111F221F481759071CF041505040F5CFA6
:10013800002711272227332708C033270FEF102F56
:0C0148002FE7322F8F919F9181DF0895E7
:1000540010D039F041585F4F342F220F3695279531
:04006400362B08959A
:10051200042E152E262E372E82DE002E112E222E8E
:04052200332E0895D7
:06022000689498DF0895C8
:1001540089DF09F441C0E62ED52EC42EB32EA22E7B
:10016400912E802E002D112D222D332D7BDF09F4AD
:100174003DC0842F952F8C199D09B9F072F4909588
:10018400809501964C2D5D2D883180F53595279508
:10019400179507950197D1F708C08831E8F4B5940D
:1001A400A794979487940197D1F766272EF0080DAA
:1001B400191D2A1D3B1D09C0801A910AA20AB30AFF
:1001C400082D192D2A2D3B2D332312F42AD060E853
:1001D40091DF01C03DDF16C0002D112D222D332DDE
:1001E400D6F747DFC1F340E83427F5CF082D192DA2
:1001F4002A2D3B2D4C2D5D2D6E2D33235AF711D016
:0602040060E8E8CF089558
:0E0068004AD121F0662309F0DAD09894089569
:1004E600042E152E262E372EC9DE002E112E222E74
:0404F600332E089504
:100282003DD081F1E62ED52EC42EB32EA22E912E74
:10029200802E002D112D222D332D30D019F16E25F7
:1002A2004C0D5D1D40385307F4F441387FEF57077A
:1002B200FCF088279927AA27BB2770E2B695A79555
:1002C20097958795379527951795079520F4880D6B
:1002D200991DAA1DBB1D7A9589F7032F3A2F292F45
:1002E200182F09DF0AC00FEF102F2FE73FE7FACFD1
:0C02F2000027102F202F302FF5CF08958B
:0E041200F5DF1CF40024039401C000240895BB
:0E03FE00042E152E262E372E01DF0023089523
:10020A000AD0332332F032DF11F001E003C00027B5
:06021A0001C00FEF089582
:0E042000EEDF1CF00024039401C000240895B8
:060BFA0068941DDB089564
:100C0000042E152E262E372E12DC002E112E222E0B
:040C1000332E0895E2
:10042E003F932F931F930F93002D112D222D332DBC
:10043E005FDF09F44BC0E62ED52EC42EB32EA22EAE
:10044E00912E802E0F911F912F913F9151DF61F1CF
:10045E006E254C195D09403853073CF541387FEF46
:10046E0057077CF180E27724632E522E412E302FD7
:10047E00222711270027000F111F221F331F441C94
:10048E00551C661C771C28F0481859086A087B080A
:10049E0004C0480C591C6A1C7B1C0AF001608A952A
:1004AE0051F74150504021DE16C00FEF102F2FE7AD
:1004BE003FE76623C9F3D8DDB9F3342D30E8342590
:1004CE00F3CF0027102F202F302FEECF0F900F904D
:0804DE000F900F90EACF089582
:101BF0002F923F924F925F926F927F928F92B1E0BD
:101C00002B2E9CDABAE64B2EB0E05B2EB5E03B2ED5
:101C1000B1E02B2EFBDAB5E64B2EB0E05B2EB2E046
:101C20003B2EB2E02B2EF2DAB0E64B2EB0E05B2E6C
:101C3000B2E03B2EB3E02B2EE9DABFE84B2EB0E04A
:101C40005B2EB2E03B2EB4E02B2EE0DA3090560152
:101C500020905501D5DA20E0322F0E94FD0540E0AA
:101C600050E068EC72E40E940006B2E08B2E28017E
:101C70003901B2E03B2EBFE02B2EE9D8309058015D
:101C800020905701BDDA20E0322F0E94FD0540E090
:101C900050E068EC72E40E940006B2E08B2E28014E
:101CA0003901B3E03B2EBFE02B2ED1D830905A0142
:101CB00020905901A5DA20E0322F0E94FD0540E076
:101CC00050E068EC72E40E940006B2E08B2E28011E
:101CD0003901B4E03B2EBFE02B2EB9D824E816EE34
:101CE00003EE0A95F1F71A95E1F72A95D1F700006E
:101CF0008F907F906F905F904F903F902F900895BE
:001D0000E3
:10139E002F923F924F925F926F927F928F92B1E017
:1013AE002B2EC5DEB4E94B2EB0E05B2EB6E03B2E05
:1013BE00B1E02B2E24DFBDEA4B2EB0E05B2EB2E067
:1013CE003B2EB2E02B2E1BDFB8EA4B2EB0E05B2E8D
:1013DE00B2E03B2EB3E02B2E12DFB3EA4B2EB0E081
:1013EE005B2EB2E03B2EB4E02B2E09DF30905C0179
:1013FE0020905B01FEDEA80160E0762F30905E014A
:10140E0020905D01F6DE1801B0E04B2E542C352FE6
:10141E00242F002711270229132924293529E6DB39
:10142E00B1E08B2E28013901B2E03B2EBEE02B2E0F
:10143E0007DD3090600120905F01DBDEA80160E0E7
:10144E00762F3090620120906101D3DE1801B0E05A
:10145E004B2E542C352F242F002711270229132908
:10146E0024293529C3DBB1E08B2E28013901B3E0E5
:10147E003B2EBEE02B2EE4DC309064012090630105
:10148E00B8DEA80160E0762F3090660120906501ED
:10149E00B0DE1801B0E04B2E542C352F242F002730
:1014AE0011270229132924293529A0DBB1E08B2E1F
:1014BE0028013901B4E03B2EBEE02B2EC1DC24E81E
:1014CE0016EE03EE0A95F1F71A95E1F72A95D1F784
:1014DE0000008F907F906F905F904F903F902F9075
:0214EE0008955F
:10129A002F923F924F925F926F927F928F92B1E01C
:1012AA002B2E47DFB4E04B2EB1E05B2EB5E03B2E90
:1012BA00B1E02B2EA6DFB2E24B2EB1E05B2EB2E0FC
:1012CA003B2EB2E02B2E9DDFB1EA4B2EB0E05B2E17
:1012DA00B2E03B2EB3E02B2E94DFBFE94B2EB0E0F9
:1012EA005B2EB2E03B2EB4E02B2E8BDF30906C01EC
:1012FA0020906B0180DF20E0322F7ADC40E050E062
:10130A0060E271E478DCB1E08B2E28013901B2E0A9
:10131A003B2EBEE02B2E96DD30906E0120906D01A3
:10132A006ADF20E0322F64DC40E050E060E271E4E2
:10133A0062DCB1E08B2E28013901B3E03B2EBEE01E
:10134A002B2E80DD3090700120906F0154DF20E059
:10135A00322F4EDC40E050E060E271E44CDCB1E058
:10136A008B2E28013901B4E03B2EBEE02B2E6ADD1C
:10137A0024E816EE03EE0A95F1F71A95E1F72A9595
:10138A00D1F700008F907F906F905F904F903F90C1
:04139A002F900895F3
:101752002F923F924F925F926F927F928F92B1E05F
:101762002B2EEBDCB6ED4B2EB0E05B2EB5E03B2E24
:10177200B1E02B2E4ADDBEEB4B2EB0E05B2EB2E089
:101782003B2EB2E02B2E41DDBCEB4B2EB0E05B2EAC
:10179200B2E03B2EB3E02B2E38DDBAEB4B2EB0E09D
:1017A2005B2EB2E03B2EB4E02B2E2FDD3090780181
:1017B2002090770124DD20E0322F1EDA40E050E055
:1017C20068EC72E41CDAB2E08B2E28013901B2E037
:1017D2003B2EBFE02B2E3ADB30907A01209079012C
:1017E2000EDD20E0322F08DA40E050E068EC72E4CF
:1017F20006DAB2E08B2E28013901B3E03B2EBFE0BE
:101802002B2E24DB30907C0120907B01F8DC20E041
:10181200322FF2D940E050E068EC72E4F0D9B2E045
:101822008B2E28013901B4E03B2EBFE02B2E0EDBBC
:1018320024E816EE03EE0A95F1F71A95E1F72A95D8
:10184200D1F700008F907F906F905F904F903F9004
:041852002F90089536
:101856002F923F924F925F926F927F928F92B1E05A
:101866002B2E69DCB2EC4B2EB0E05B2EB5E03B2EA6
:10187600B1E02B2EC8DCB0EC4B2EB0E05B2EB2E014
:101886003B2EB2E02B2EBFDCB5EE4B2EB0E05B2E2E
:10189600B2E03B2EB3E02B2EB6DCB3EE4B2EB0E01F
:1018A6005B2EB2E03B2EB4E02B2EADDC3090720105
:1018B60020907101A2DC20E0322F9CD940E050E05C
:1018C60068EC72E49AD9B1E08B2E28013901B2E0B6
:1018D6003B2EBFE02B2EB8DA3090740120907301B6
:1018E6008CDC20E0322F86D940E050E068EC72E4D0
:1018F60084D9B1E08B2E28013901B3E03B2EBFE03D
:101906002B2EA2DA309076012090750176DC20E04D
:10191600322F70D940E050E068EC72E46ED9B1E045
:101926008B2E28013901B4E03B2EBFE02B2E8CDA3A
:1019360024E816EE03EE0A95F1F71A95E1F72A95D3
:10194600D1F700008F907F906F905F904F903F90FF
:041956002F90089531
:101634002F923F924F925F926F927F928F92B1E07E
:101644002B2E7ADDBFE74B2EB0E05B2EB3E03B2EB2
:10165400B1E02B2ED9DDB7E74B2EB0E05B2EB2E024
:101664003B2EB2E02B2ED0DDB2EB4B2EB0E05B2E46
:10167400B2E03B2EB3E02B2EC7DDBEEC4B2EB0E028
:101684005B2EB2E03B2EB4E02B2EBEDD30907E010B
:1016940020907D01B3DDA80160E0762F30908001B9
:1016A40020907F01ABDD1801B0E04B2E542C352F78
:1016B400242F0027112702291329242935299BDAED
:1016C400B1E08B2E28013901B2E03B2EBEE02B2E77
:1016D400BCDB3090C0012090BF0190DD20E0322FB0
:1016E4008ADA40E050E06AE774E488DAB2E08B2EEC
:1016F40028013901B3E03B2EBFE02B2EA6DB30904E
:101704008201209081017ADD20E0322F74DA40E0FA
:1017140050E060E271E472DAB1E08B2E2801390105
:10172400B4E03B2EBFE02B2E90DB24E816EE03EE54
:101734000A95F1F71A95E1F72A95D1F700008F90F1
:0E1744007F906F905F904F903F902F90089590
:1014F0002F923F924F925F926F927F92B1E02B2E8C
:101500001DDEB4E24B2EB1E05B2EB5E03B2EB1E028
:101510002B2E7CDEB0E34B2EB1E05B2EB2E03B2EF7
:10152000B2E02B2E73DEB1E14B2EB1E05B2EB2E0C8
:101530003B2EB3E02B2E6ADEB9E14B2EB1E05B2EE1
:10154000B2E03B2EB4E02B2E61DE30909C01209067
:101550009B0156DEA80160E0762F30909E0120901E
:101560009D014EDE1801B0E04B2E542C352F242F58
:101570000027112702291329242935293EDB40E0C1
:1015800050E060E271E43CDB0E94930228013901E3
:10159000B2E03B2EB0E12B2E0E94B7023090A001AA
:1015A00020909F012DDEA80160E0762F3090A201EF
:1015B0002090A10125DE1801B0E04B2E542C352FD0
:1015C000242F00271127022913292429352915DB67
:1015D0000E94930228013901B3E03B2EB0E12B2E8B
:1015E0000E94B7023090A4012090A30109DE20E000
:1015F000322F03DB0E94930228013901B4E03B2E15
:10160000B0E12B2E0E94B70224E816EE03EE0A95F5
:10161000F1F71A95E1F72A95D1F700007F906F90C6
:0A1620005F904F903F902F900895C7
:0A162A0005900D920197E1F7089575
:101E6E00A0E6B0E0E4E9FDE189ED90E00E94150BFB
:021E7E000895C5
:101D26000F931F932F93EF93FF93BF93BFB7BF9369
:101D36001CE421E00091FE00E02FF0E0E10FF21F2D
:101D46000CB100830091FE000F5F0093FE00BBB153
:101D5600BF77BBB9BF91BFBFBF91FF91EF912F91E5
:061D66001F910F9118957A
:051D9400505620320052
:051D990050562031004E
:0D1D9E0044432043757272656E742F41003E
:081DAB00506F7765722F57009D
:101DB3004772696420506172616D65746572730066
:051DC300505620330022
:0B1DC800444320506F7765722F5700D6
:021DD3004200CC
:021DD5005900B3
:051DD70050562033000E
:051DDC0050562032000A
:051DE100505620310006
:081DE600506F772E4661630087
:021DEE004200B1
:021DF000590098
:021DF20052009D
:021DF40052009B
:0C1DF600414320467265712E2F487A0090
:081E020054656D702F274300A9
:0D1E0A0041432043757272656E742F4100D4
:021E1700420087
:021E190059006E
:0D1E1B00444320566F6C746167652F5600BC
:051E28005056203100BE
:051E2D005056203200B8
:011E320000AF
:051E33005056203300B1
:0D1E3800414320566F6C746167652F5600A2
:081E4500452E20596561720071
:091E4D00452E20546F64617900F8
:021E5600520038
:0C1E5800456E657267792F6B5748720069
:091E6400452E20546F74616C00DE
:00000001FF
